{
  "contractName": "CandleAuction",
  "abi": [
    {
      "anonymous": false,
      "inputs": [
        {
          "indexed": true,
          "internalType": "uint256",
          "name": "auctionId",
          "type": "uint256"
        },
        {
          "indexed": true,
          "internalType": "address",
          "name": "auctioneer",
          "type": "address"
        },
        {
          "indexed": false,
          "internalType": "uint256",
          "name": "end",
          "type": "uint256"
        }
      ],
      "name": "AuctionCreated",
      "type": "event"
    },
    {
      "anonymous": false,
      "inputs": [
        {
          "indexed": true,
          "internalType": "uint256",
          "name": "auctionId",
          "type": "uint256"
        },
        {
          "indexed": true,
          "internalType": "address",
          "name": "winner",
          "type": "address"
        },
        {
          "indexed": false,
          "internalType": "uint256",
          "name": "amount",
          "type": "uint256"
        }
      ],
      "name": "AuctionEnded",
      "type": "event"
    },
    {
      "anonymous": false,
      "inputs": [
        {
          "indexed": true,
          "internalType": "uint256",
          "name": "auctionId",
          "type": "uint256"
        },
        {
          "indexed": true,
          "internalType": "address",
          "name": "bidder",
          "type": "address"
        },
        {
          "indexed": false,
          "internalType": "uint256",
          "name": "amount",
          "type": "uint256"
        }
      ],
      "name": "BidAmount",
      "type": "event"
    },
    {
      "anonymous": false,
      "inputs": [
        {
          "indexed": true,
          "internalType": "uint256",
          "name": "auctionId",
          "type": "uint256"
        },
        {
          "indexed": true,
          "internalType": "address",
          "name": "bidder",
          "type": "address"
        },
        {
          "indexed": false,
          "internalType": "uint256",
          "name": "amount",
          "type": "uint256"
        }
      ],
      "name": "BidWithdrawn",
      "type": "event"
    },
    {
      "inputs": [],
      "name": "auctionIdCount",
      "outputs": [
        {
          "internalType": "uint256",
          "name": "",
          "type": "uint256"
        }
      ],
      "stateMutability": "view",
      "type": "function",
      "constant": true
    },
    {
      "inputs": [
        {
          "internalType": "uint256",
          "name": "",
          "type": "uint256"
        }
      ],
      "name": "auctions",
      "outputs": [
        {
          "internalType": "address payable",
          "name": "auctioneer",
          "type": "address"
        },
        {
          "internalType": "uint256",
          "name": "start",
          "type": "uint256"
        },
        {
          "internalType": "uint256",
          "name": "end",
          "type": "uint256"
        },
        {
          "internalType": "bool",
          "name": "ended",
          "type": "bool"
        },
        {
          "internalType": "address",
          "name": "highestBidderTillNow",
          "type": "address"
        },
        {
          "internalType": "uint256",
          "name": "highestBid",
          "type": "uint256"
        },
        {
          "internalType": "bool",
          "name": "randomnessProcessed",
          "type": "bool"
        }
      ],
      "stateMutability": "view",
      "type": "function",
      "constant": true
    },
    {
      "inputs": [
        {
          "internalType": "uint256",
          "name": "",
          "type": "uint256"
        },
        {
          "internalType": "address",
          "name": "",
          "type": "address"
        }
      ],
      "name": "bids",
      "outputs": [
        {
          "internalType": "uint256",
          "name": "",
          "type": "uint256"
        }
      ],
      "stateMutability": "view",
      "type": "function",
      "constant": true
    },
    {
      "inputs": [
        {
          "internalType": "uint256",
          "name": "duration",
          "type": "uint256"
        }
      ],
      "name": "createAuction",
      "outputs": [],
      "stateMutability": "nonpayable",
      "type": "function"
    },
    {
      "inputs": [
        {
          "internalType": "uint256",
          "name": "auctionId",
          "type": "uint256"
        }
      ],
      "name": "makeBid",
      "outputs": [],
      "stateMutability": "payable",
      "type": "function",
      "payable": true
    },
    {
      "inputs": [
        {
          "internalType": "uint256",
          "name": "auctionId",
          "type": "uint256"
        }
      ],
      "name": "returnPreviousBid",
      "outputs": [],
      "stateMutability": "nonpayable",
      "type": "function"
    },
    {
      "inputs": [
        {
          "internalType": "uint256",
          "name": "auctionId",
          "type": "uint256"
        }
      ],
      "name": "getWinner",
      "outputs": [],
      "stateMutability": "nonpayable",
      "type": "function"
    },
    {
      "inputs": [
        {
          "internalType": "uint256",
          "name": "auctionId",
          "type": "uint256"
        }
      ],
      "name": "getRandomWinner",
      "outputs": [],
      "stateMutability": "nonpayable",
      "type": "function"
    }
  ],
  "bytecode": "0x608060405234801561001057600080fd5b506114c1806100206000396000f3fe60806040526004361061007a5760003560e01c80634129b2c91161004e5780634129b2c91461012c578063571a26a014610155578063d5563f3114610198578063d94220fa146101c15761007a565b8062a27ace1461007f578063038cda94146100a8578063175b2304146100d35780633f1ffcec146100ef575b600080fd5b34801561008b57600080fd5b506100a660048036038101906100a19190610e72565b6101ea565b005b3480156100b457600080fd5b506100bd610372565b6040516100ca9190610eae565b60405180910390f35b6100ed60048036038101906100e89190610e72565b610378565b005b3480156100fb57600080fd5b5061011660048036038101906101119190610f27565b610569565b6040516101239190610eae565b60405180910390f35b34801561013857600080fd5b50610153600480360381019061014e9190610e72565b61058e565b005b34801561016157600080fd5b5061017c60048036038101906101779190610e72565b61082f565b60405161018f9796959493929190610fb2565b60405180910390f35b3480156101a457600080fd5b506101bf60048036038101906101ba9190610e72565b6108cb565b005b3480156101cd57600080fd5b506101e860048036038101906101e39190610e72565b610ab2565b005b60006002600083815260200190815260200160002060003373ffffffffffffffffffffffffffffffffffffffff1673ffffffffffffffffffffffffffffffffffffffff16815260200190815260200160002054905060008111610282576040517f08c379a00000000000000000000000000000000000000000000000000000000081526004016102799061107e565b60405180910390fd5b60006002600084815260200190815260200160002060003373ffffffffffffffffffffffffffffffffffffffff1673ffffffffffffffffffffffffffffffffffffffff168152602001908152602001600020819055503373ffffffffffffffffffffffffffffffffffffffff166108fc829081150290604051600060405180830381858888f1935050505015801561031e573d6000803e3d6000fd5b503373ffffffffffffffffffffffffffffffffffffffff16827f8f8619524e8d462cead34604bd2247ede24175801481e4d0b8059ac8aa41c301836040516103669190610eae565b60405180910390a35050565b60015481565b80600080828152602001908152602001600020600201544311156103d1576040517f08c379a00000000000000000000000000000000000000000000000000000000081526004016103c8906110ea565b60405180910390fd5b600080600084815260200190815260200160002090508060040154341161042d576040517f08c379a00000000000000000000000000000000000000000000000000000000081526004016104249061117c565b60405180910390fd5b60008160040154146104c95780600401546002600085815260200190815260200160002060008360030160019054906101000a900473ffffffffffffffffffffffffffffffffffffffff1673ffffffffffffffffffffffffffffffffffffffff1673ffffffffffffffffffffffffffffffffffffffff16815260200190815260200160002060008282546104c191906111cb565b925050819055505b338160030160016101000a81548173ffffffffffffffffffffffffffffffffffffffff021916908373ffffffffffffffffffffffffffffffffffffffff1602179055503481600401819055503373ffffffffffffffffffffffffffffffffffffffff16837f53e7b97c5cd9acde997d233f7896c741206ea4da9145f849046239ef1f17e6bc3460405161055c9190610eae565b60405180910390a3505050565b6002602052816000526040600020602052806000526040600020600091509150505481565b806000808281526020019081526020016000206002015443116105e6576040517f08c379a00000000000000000000000000000000000000000000000000000000081526004016105dd9061124b565b60405180910390fd5b60008082815260200190815260200160002060030160009054906101000a900460ff1615610649576040517f08c379a0000000000000000000000000000000000000000000000000000000008152600401610640906110ea565b60405180910390fd5b600080600084815260200190815260200160002090508060050160009054906101000a900460ff16156106b1576040517f08c379a00000000000000000000000000000000000000000000000000000000081526004016106a8906112b7565b60405180910390fd5b60018160030160006101000a81548160ff02191690831515021790555060018160050160006101000a81548160ff021916908315150217905550600073ffffffffffffffffffffffffffffffffffffffff168160030160019054906101000a900473ffffffffffffffffffffffffffffffffffffffff1673ffffffffffffffffffffffffffffffffffffffff16146107b3578060000160009054906101000a900473ffffffffffffffffffffffffffffffffffffffff1673ffffffffffffffffffffffffffffffffffffffff166108fc82600401549081150290604051600060405180830381858888f193505050501580156107b1573d6000803e3d6000fd5b505b8060030160019054906101000a900473ffffffffffffffffffffffffffffffffffffffff1673ffffffffffffffffffffffffffffffffffffffff16837fd2aa34a4fdbbc6dff6a3e56f46e0f3ae2a31d7785ff3487aa5c95c642acea50183600401546040516108229190610eae565b60405180910390a3505050565b60006020528060005260406000206000915090508060000160009054906101000a900473ffffffffffffffffffffffffffffffffffffffff16908060010154908060020154908060030160009054906101000a900460ff16908060030160019054906101000a900473ffffffffffffffffffffffffffffffffffffffff16908060040154908060050160009054906101000a900460ff16905087565b600160008154809291906108de906112d7565b9190505550600081436108f191906111cb565b90506040518060e001604052803373ffffffffffffffffffffffffffffffffffffffff168152602001438152602001828152602001600015158152602001600073ffffffffffffffffffffffffffffffffffffffff1681526020016000815260200160001515815250600080600154815260200190815260200160002060008201518160000160006101000a81548173ffffffffffffffffffffffffffffffffffffffff021916908373ffffffffffffffffffffffffffffffffffffffff160217905550602082015181600101556040820151816002015560608201518160030160006101000a81548160ff02191690831515021790555060808201518160030160016101000a81548173ffffffffffffffffffffffffffffffffffffffff021916908373ffffffffffffffffffffffffffffffffffffffff16021790555060a0820151816004015560c08201518160050160006101000a81548160ff0219169083151502179055509050503373ffffffffffffffffffffffffffffffffffffffff166001547f6ff530872708bbb51bad8ea341564e4ea039807ad1331f61ab4c906a66875daf83604051610aa69190610eae565b60405180910390a35050565b80600080828152602001908152602001600020600201544311610b0a576040517f08c379a0000000000000000000000000000000000000000000000000000000008152600401610b019061124b565b60405180910390fd5b60008082815260200190815260200160002060030160009054906101000a900460ff1615610b6d576040517f08c379a0000000000000000000000000000000000000000000000000000000008152600401610b64906110ea565b60405180910390fd5b600080600084815260200190815260200160002090508060050160009054906101000a900460ff1615610bd5576040517f08c379a0000000000000000000000000000000000000000000000000000000008152600401610bcc906112b7565b60405180910390fd5b6000816004015442600143610bea919061131f565b40604051602001610bfc92919061139f565b6040516020818303038152906040528051906020012060001c610c1f91906113fa565b905060018260050160006101000a81548160ff0219169083151502179055506000600282610c4d91906113fa565b148015610cab5750600073ffffffffffffffffffffffffffffffffffffffff168260030160019054906101000a900473ffffffffffffffffffffffffffffffffffffffff1673ffffffffffffffffffffffffffffffffffffffff1614155b15610d9b578160000160009054906101000a900473ffffffffffffffffffffffffffffffffffffffff1673ffffffffffffffffffffffffffffffffffffffff166108fc83600401549081150290604051600060405180830381858888f19350505050158015610d1e573d6000803e3d6000fd5b508160030160019054906101000a900473ffffffffffffffffffffffffffffffffffffffff1673ffffffffffffffffffffffffffffffffffffffff16847fd2aa34a4fdbbc6dff6a3e56f46e0f3ae2a31d7785ff3487aa5c95c642acea5018460040154604051610d8e9190610eae565b60405180910390a3610e31565b60008260030160016101000a81548173ffffffffffffffffffffffffffffffffffffffff021916908373ffffffffffffffffffffffffffffffffffffffff160217905550600073ffffffffffffffffffffffffffffffffffffffff16847fd2aa34a4fdbbc6dff6a3e56f46e0f3ae2a31d7785ff3487aa5c95c642acea5016000604051610e289190611470565b60405180910390a35b50505050565b600080fd5b6000819050919050565b610e4f81610e3c565b8114610e5a57600080fd5b50565b600081359050610e6c81610e46565b92915050565b600060208284031215610e8857610e87610e37565b5b6000610e9684828501610e5d565b91505092915050565b610ea881610e3c565b82525050565b6000602082019050610ec36000830184610e9f565b92915050565b600073ffffffffffffffffffffffffffffffffffffffff82169050919050565b6000610ef482610ec9565b9050919050565b610f0481610ee9565b8114610f0f57600080fd5b50565b600081359050610f2181610efb565b92915050565b60008060408385031215610f3e57610f3d610e37565b5b6000610f4c85828601610e5d565b9250506020610f5d85828601610f12565b9150509250929050565b6000610f7282610ec9565b9050919050565b610f8281610f67565b82525050565b60008115159050919050565b610f9d81610f88565b82525050565b610fac81610ee9565b82525050565b600060e082019050610fc7600083018a610f79565b610fd46020830189610e9f565b610fe16040830188610e9f565b610fee6060830187610f94565b610ffb6080830186610fa3565b61100860a0830185610e9f565b61101560c0830184610f94565b98975050505050505050565b600082825260208201905092915050565b7f4e6f2066756e647320746f207769746864726177000000000000000000000000600082015250565b6000611068601483611021565b915061107382611032565b602082019050919050565b600060208201905081810360008301526110978161105b565b9050919050565b7f41756374696f6e2068617320616c726561647920656e64656400000000000000600082015250565b60006110d4601983611021565b91506110df8261109e565b602082019050919050565b60006020820190508181036000830152611103816110c7565b9050919050565b7f426964206973206e6f7420686967686572207468616e2074686520637572726560008201527f6e74206869676865737420626964000000000000000000000000000000000000602082015250565b6000611166602e83611021565b91506111718261110a565b604082019050919050565b6000602082019050818103600083015261119581611159565b9050919050565b7f4e487b7100000000000000000000000000000000000000000000000000000000600052601160045260246000fd5b60006111d682610e3c565b91506111e183610e3c565b92508282019050808211156111f9576111f861119c565b5b92915050565b7f41756374696f6e206973207374696c6c206f6e676f696e670000000000000000600082015250565b6000611235601883611021565b9150611240826111ff565b602082019050919050565b6000602082019050818103600083015261126481611228565b9050919050565b7f52616e646f6d6e65737320616c72656164792070726f63657373656400000000600082015250565b60006112a1601c83611021565b91506112ac8261126b565b602082019050919050565b600060208201905081810360008301526112d081611294565b9050919050565b60006112e282610e3c565b91507fffffffffffffffffffffffffffffffffffffffffffffffffffffffffffffffff82036113145761131361119c565b5b600182019050919050565b600061132a82610e3c565b915061133583610e3c565b925082820390508181111561134d5761134c61119c565b5b92915050565b6000819050919050565b61136e61136982610e3c565b611353565b82525050565b6000819050919050565b6000819050919050565b61139961139482611374565b61137e565b82525050565b60006113ab828561135d565b6020820191506113bb8284611388565b6020820191508190509392505050565b7f4e487b7100000000000000000000000000000000000000000000000000000000600052601260045260246000fd5b600061140582610e3c565b915061141083610e3c565b9250826114205761141f6113cb565b5b828206905092915050565b6000819050919050565b6000819050919050565b600061145a6114556114508461142b565b611435565b610e3c565b9050919050565b61146a8161143f565b82525050565b60006020820190506114856000830184611461565b9291505056fea26469706673582212201adbd2678733ba946ab4d18c8a7e43c359f4168d82b3a44216d669902849fd0b64736f6c63430008120033",
  "immutableReferences": {},
  "source": "// SPDX-License-Identifier: MIT\r\npragma solidity ^0.8.18;\r\n\r\ncontract CandleAuction {\r\n    struct Auction {\r\n        address payable auctioneer;\r\n        uint256 start;\r\n        uint256 end;\r\n        bool ended;\r\n        address highestBidderTillNow;\r\n        uint256 highestBid;\r\n        bool randomnessProcessed;\r\n    }\r\n\r\n    mapping(uint256 => Auction) public auctions;\r\n    uint256 public auctionIdCount;\r\n\r\n    mapping(uint256 => mapping(address => uint256)) public bids;\r\n\r\n    event AuctionCreated(uint256 indexed auctionId, address indexed auctioneer, uint256 end);\r\n    event BidAmount(uint256 indexed auctionId, address indexed bidder, uint256 amount);\r\n    event AuctionEnded(uint256 indexed auctionId, address indexed winner, uint256 amount);\r\n    event BidWithdrawn(uint256 indexed auctionId, address indexed bidder, uint256 amount);\r\n\r\n    modifier onlyAuctioneer(uint256 auctionId) {\r\n        require(msg.sender == auctions[auctionId].auctioneer, \"Only the auctioneer can perform this action\");\r\n        _;\r\n    }\r\n\r\n    modifier auctionOngoing(uint256 auctionId) {\r\n        require(block.number <= auctions[auctionId].end, \"Auction has already ended\");\r\n        _;\r\n    }\r\n\r\n    modifier auctionEnded(uint256 auctionId) {\r\n        require(block.number > auctions[auctionId].end, \"Auction is still ongoing\");\r\n        require(!auctions[auctionId].ended, \"Auction has already ended\");\r\n        _;\r\n    }\r\n\r\n    function createAuction(uint256 duration) public {\r\n        auctionIdCount++;\r\n        uint256 end = block.number + duration;\r\n        auctions[auctionIdCount] = Auction({\r\n            auctioneer: payable(msg.sender),\r\n            start: block.number,\r\n            end: end,\r\n            ended: false,\r\n            highestBidderTillNow: address(0),\r\n            highestBid: 0,\r\n            randomnessProcessed: false\r\n        });\r\n\r\n        emit AuctionCreated(auctionIdCount, msg.sender, end);\r\n    }\r\n\r\n    function makeBid(uint256 auctionId) public payable auctionOngoing(auctionId) {\r\n        Auction storage auction = auctions[auctionId];\r\n        require(msg.value > auction.highestBid, \"Bid is not higher than the current highest bid\");\r\n\r\n        if (auction.highestBid != 0) {\r\n            bids[auctionId][auction.highestBidderTillNow] += auction.highestBid;\r\n        }\r\n\r\n        auction.highestBidderTillNow = msg.sender;\r\n        auction.highestBid = msg.value;\r\n\r\n        emit BidAmount(auctionId, msg.sender, msg.value);\r\n    }\r\n\r\n    function returnPreviousBid(uint256 auctionId) public {\r\n        uint256 amount = bids[auctionId][msg.sender];\r\n        require(amount > 0, \"No funds to withdraw\");\r\n\r\n        bids[auctionId][msg.sender] = 0;\r\n        payable(msg.sender).transfer(amount);\r\n\r\n        emit BidWithdrawn(auctionId, msg.sender, amount);\r\n    }\r\n\r\n    function getWinner(uint256 auctionId) public auctionEnded(auctionId) {\r\n        Auction storage auction = auctions[auctionId];\r\n        require(!auction.randomnessProcessed, \"Randomness already processed\");\r\n\r\n        auction.ended = true;\r\n        auction.randomnessProcessed = true;\r\n\r\n        if (auction.highestBidderTillNow != address(0)) {\r\n            auction.auctioneer.transfer(auction.highestBid);\r\n        }\r\n\r\n        emit AuctionEnded(auctionId, auction.highestBidderTillNow, auction.highestBid);\r\n    }\r\n\r\n    function getRandomWinner(uint256 auctionId) public auctionEnded(auctionId) {\r\n        Auction storage auction = auctions[auctionId];\r\n        require(!auction.randomnessProcessed, \"Randomness already processed\");\r\n\r\n        // Using block.timestamp and blockhash for randomness\r\n        uint256 randomValue = uint256(keccak256(abi.encodePacked(block.timestamp, blockhash(block.number - 1)))) % auction.highestBid;\r\n        auction.randomnessProcessed = true;\r\n\r\n        if (randomValue % 2 == 0 && auction.highestBidderTillNow != address(0)) {\r\n            auction.auctioneer.transfer(auction.highestBid);\r\n            emit AuctionEnded(auctionId, auction.highestBidderTillNow, auction.highestBid);\r\n        } else {\r\n            auction.highestBidderTillNow = address(0);\r\n            emit AuctionEnded(auctionId, address(0), 0);\r\n        }\r\n    }\r\n}\r\n",
  "sourcePath": "C:\\Users\\User\\Desktop\\New folder\\candle-auction\\contracts\\CandleAuction.sol",
  "compiler": {
    "name": "solc",
    "version": "0.8.18+commit.87f61d96.Emscripten.clang"
  },
  "schemaVersion": "3.4.16",
  "updatedAt": "2024-07-26T03:29:48.386Z",
  "networkType": "ethereum",
  "devdoc": {
    "kind": "dev",
    "methods": {},
    "version": 1
  },
  "userdoc": {
    "kind": "user",
    "methods": {},
    "version": 1
  }
}